:020000040800F2
:10000000B0170020CD360008CD350008CF350008E8
:1000100000000000000000000000000000000000E0
:10002000000000000000000000000000D1350008C2
:100030000000000000000000D3350008D53500089E
:100040002F1D0008572200088F2200089B2B000854
:100050007B36000887360008DD360008DF360008EA
:10006000E1360008DD350008E3360008E536000813
:10007000E7360008E9360008EB360008ED360008E0
:10008000EF360008F1360008F3360008F5360008B0
:10009000F7360008F9360008FB360008FD36000880
:1000A000FF3600080137000803370008053700084D
:1000B00007370008093700080B370008E735000844
:1000C000F0B585B0070001D101204BE0AA208000E7
:1000D0003E1800257078002803D13570380000F0F4
:1000E00051FD03207070386800F0BFFE002001242D
:1000F0000EE028214143791829228C542823C85422
:10010000C8862B23CD548D63CD630D64401CC0B2D3
:1001100079688842EDD300200DE028214143791809
:10012000B422520089184D700870CD700D614D6178
:100130008D61401CC0B279688842EED3391D83B00E
:100140006846202201F0BEFB0EBC386800F095FE28
:1001500024203D547470F869012802D1380001F060
:10016000ECFB002005B0F0BD38B50400AA208000EB
:1001700025182878012801D1022032BD01202870DD
:10018000206800F06BFE206801F055FB002028700D
:1001900032BD0000F8B586B00400206801F052FBC3
:1001A000000400D5B6E0206801F04CFB40050DD5F9
:1001B00020684421415AB04A0A404421425220005A
:1001C00000F024FD0021200000F0DEFB206801F09B
:1001D00039FB400406D520684421415AA74A0A4009
:1001E00044214252206801F02DFB800406D520688E
:1001F0004421415AA24A0A4044214252B820800078
:100200002718206801F01EFBC0041FD5206840217C
:10021000415A9C4A0A40402142522068415A9A4A17
:100220000A40402142523878012805D10020387018
:100230000021200001F093FB200000F009FD206860
:100240004421415A914A0A40442142520425082639
:10025000206801F0F7FA000516D520684021415AC0
:1002600008220A434021425220684421415ACE4A82
:100270000A404421425220684021415A29434022E9
:100280008152200000F0D4FC206801F0DBFA000667
:1002900022D520684421415AC44A0A40442142528E
:1002A0003878002800D044E320684021415A0D43AB
:1002B000402145522068415A0E43402146520120B8
:1002C000387020685421405A80083C2101407960F0
:1002D0000121200001F043FB2EE3012E08D150251F
:1002E000405B10183A78D2008018C64A8018038004
:1002F00079619BB27A89206801F0BEFA206839786A
:10030000890040180188C04A0A4030215140BF4A44
:100310000A430280206880252D024421415A294247
:1003200000D140E74421415A0A07120F0392802668
:10033000C94A6B461A80039A002A00D0A8E0C90671
:100340002CD420680088C54901400D4320680580F1
:1003500020685021415A2822A25CD200891808182E
:10036000BF49401800888005800D6064E16B081863
:10037000E0630021200000F036FC2420205C0028EF
:10038000C8D0206C0028C5D12420205C06432068FA
:100390004C214652002024216054BBE72168098883
:1003A000B4225200A718AF4B0A051BD55021415A61
:1003B0003A78D20089180918924A891809880B409E
:1003C000FB61FA88AC218900611801F067FA2068A6
:1003D00001886A4612880A4016430680200000F011
:1003E000EAFB97E7294095D020680088694609888C
:1003F00001400E43206806802068824E5021415AF9
:100400003A78D20089180918891909880B40FB61CC
:100410000DD0796900290AD0FA8801F03FFA78698D
:10042000F969401878610021200000F0CEFB2068B7
:100430005021415A401880193969002905D1018895
:10044000894A0A40028001880DE03F2906D24A0805
:10045000C90700D5521C9102018006E04A09C9066D
:1004600000D1521E91020D430580206801887F4A09
:100470000A40C021890149E7FFFB0000FFBF0000DF
:10048000FFDF0000FBFF0000F7FF0000FFEF0000B0
:1004900020689100405A0290039828214843201870
:1004A00005900298284000D110E190002168095A77
:1004B0006A4612880A408021114322681152059829
:1004C000B42149004718387B002814D120685021F6
:1004D000415A3A78D200891809184A4A8918098875
:1004E0008905890D6A46118000D1D6E069460B88DE
:1004F000FA887969CFE068080490F878022800D07B
:1005000086E00299B8690A0040231A406B461A70C7
:1005100022680192049A89B211423978019A32D044
:100520005023D25ACB00D218019BD2184C4BD21870
:1005300012889205920D0192904201D3801A00E038
:100540000020B86100280AD120688900401801887D
:10055000464A0A40A90851402C4A0A43028068468C
:100560000078002809D0206839788900401801886F
:10057000C44A0A40C44911430180019800283DD073
:1005800083B23A8936E05023D25ACB00D218019B6D
:10059000D2181C4BD21812889205920D01929042EB
:1005A00006D3801A05E000BFFFF700007FFF0000C0
:1005B0000020B86100280AD120688900401801880D
:1005C0002A4A0A40A9085140104A0A430280684654
:1005D0000078002809D120683978890040180188FE
:1005E000A84A0A405901114301800198002805D00A
:1005F00083B27A897969206801F050F901986946D7
:1006000008804AE006040000BF8F000080800000E0
:10061000387880002168095A9A4A0A409A49114359
:1006200022681152387821688200895A049A11424E
:1006300021681DD05022895AC0000818216840182E
:100640000749401800888005800D6946088024D03D
:10065000684603883A891CE08F0F00000F8F000066
:1006600002040000FF030000FF8300008FBF0000B2
:100670005022895AC000081821684018BD49401806
:1006800000888005800D6946088006D0684603888A
:100690007A897969206801F001F968460088F9696A
:1006A0000918F96179696A46128889187961B96906
:1006B000002907D03969884204D33900206800F046
:1006C000D3FD03E03978200000F07FFA029806405D
:1006D00000D11FE6059F283720680399890040183C
:1006E0000188A54A0A40290011430180F8780228B0
:1006F00000D0FAE00298C00500D4F6E002986946FE
:100700000880BA6920680190684606886808064033
:100710006846008840063978019800D47CE0502370
:10072000C05ACB00C018019BC018944BC018008859
:100730008005800D904201D2121A00E00022BA61B9
:10074000002A0FD1200000F04EFA002E09D02068B8
:1007500039788900401801884A4A0A40884911437B
:100760000180CBE5002E08D02268890051180A8844
:10077000444B1340824A1A430A802421795C0129A0
:10078000EFD179690918FA691218FA613B693A6A76
:100790009A4202D3D01A386209E0002A01D103003C
:1007A00002E013000020386200202422B854787838
:1007B000002821D120685022825A80183A78D2002D
:1007C00080186E4A8018002B05D102886D4E1640A5
:1007D000068002880DE03F2B06D25A08DD0700D5BF
:1007E000521C9202028013E05A09DE0600D1521E0A
:1007F0009202154305800BE0012809D120685022A0
:10080000825A80183A78D20080185C4A8018038097
:1008100079619BB23A896EE55023C05ACB00C0186B
:10082000019BC018534BC018008883059B0D9A424A
:1008300001D3D01A00E00020B861002805D12000C3
:1008400000F0D1F9002E8CD181E7002E08D120686C
:100850008900401801880B4A0A4049491143018028
:100860002420385C012800D048E57869C118F8696F
:10087000C018F86138693A6A824207D30300D01A77
:1008800038620BE08F8F0000C0800000002A02D089
:1008900013000020386200202422B854206802008F
:1008A0007E78002E00D018E55026805B10183A782C
:1008B000D20080182F4A8018002B07D10288314EB1
:1008C0001640068002881543058011E53F2B06D2AD
:1008D0005A08DD0700D5521C9202028008E55A0929
:1008E000DE0600D1521E9202EDE7397820685022D0
:1008F000825ACB00D2181018204A80180088800530
:10090000800DBA69904201D2121A00E00022BA6149
:10091000002A03D1200000F066F9FBE47969091888
:100920007961F9690818F8613900206800F09CFCC9
:10093000F0E4200000F07CF9206800F083FF8005DF
:1009400009D520684421415A8C4A0A404421425228
:10095000200000F054F9206800F074FFC00506D5AF
:1009600020684421415A864A0A404421425207B035
:10097000F0BD0000060400000F8F0000020400001C
:1009800080C00000FF83000010B5AA2292008418E6
:100990002278012A01D1022010BD012222702422D6
:1009A0008154006800F040FF0020207010BDF1B5B8
:1009B00007250C002C40282674430019012600242A
:1009C0000F0602D52830467003E0B4277F00C01917
:1009D00044700D4005700261C3704178002901D058
:1009E0000178C181022B00D104710099AA229200E2
:1009F0008D182978012901D10220F2BD2E70010045
:100A00000098006800F044FA2C700020F2BD70B528
:100A10000A000723194028246143411801260024B5
:100A2000150602D528314E7003E0B4256D00491932
:100A30004C7013400B70AA22920085182A78012A64
:100A400001D1022070BD2E70006800F065FB2C7093
:100A5000002070BD70B5140007250A002A40282622
:100A600072438218B4267600921954619361002370
:100A7000D36153700D4015700068110000F0F4FB55
:100A8000002070BD4907490F282251434018C22158
:100A9000490040587047F8B5140007250A002A405D
:100AA0002826724382182832546193610124242736
:100AB000D45513620023D36154700D401570006843
:100AC000110000F0D1FB0020F2BD70B50A00072331
:100AD000194044688C4201D2012070BD01260024D7
:100AE000150605D528256943411828314E7007E0C1
:100AF0001100282569434118B4256D0049194C702F
:100B00008E7013400B70AA22920085182A78012A51
:100B100001D1022070BD2E70006800F033FE2C70F1
:100B2000002070BD70B50A0043680C07240FA34273
:100B300001D2012070BD07231940282461434118C8
:100B400001260024150602D528314E7003E0B42595
:100B50006D0049194C708C7013400B70AA229200E2
:100B600085182A78012A01D1022070BD2E700068F4
:100B700000F024FE2C70002070BD0000FFFD00007E
:100B8000FFFE000000688B49884200D0704780B5A6
:100B90008020000488490A6802430A600968084006
:100BA00000900098002200211F2000F0F6FE1F2078
:100BB00000F0F7FE01BD80B5AC2189004118BC22D0
:100BC0009200805800F04BFF01BD80B50A00282339
:100BD0005A438218BE235B00D258BC239B00C058E6
:100BE00000F06AFF01BD80B50A0028235A4382182D
:100BF000D26BBC239B00C05800F0A0FF01BD80B5A4
:100C0000BC218900405801F037F801BD10B504003F
:100C1000A068022801D001F088F8BC2080002418C8
:100C20000121206801F012F8206800F0E6FF10BDF5
:100C300010B50400BC208000205801F00AF8A0691B
:100C4000002804D05D48016806220A43026010BDF6
:100C500010B50400A069002806D058480168062293
:100C60009143016001F028F8BC208000205800F07A
:100C7000F9FF10BD10B501005148BC22920081500F
:100C8000303A8C1820604B490160082141600221F4
:100C90008160016100218161C1610162FFF710FA89
:100CA000002801D001F041F818230022002120681B
:100CB00000F022FE582300228021206800F01CFE54
:100CC000C02300228121206800F016FE88235B00EB
:100CD00000220121206800F00FFE80235B0000222B
:100CE0008221206800F008FE002010BD80B5B021F0
:100CF00089004058FFF738FA00F067F802BD10B5D8
:100D000014001A002300B024A4000059FFF74FFE7E
:100D100000F05BF810BD80B5B02292008058FFF75C
:100D200076FE00F052F802BD80B5B02292008058E5
:100D3000FFF7CBFE00F049F802BD80B5B02292006B
:100D40008058FFF7EFFE00F040F802BDB02292009D
:100D500080584A06520E28235A438018090601D5A6
:100D60002A2101E0B5214900405C704780B5B022DE
:100D700092008058FFF708FE00F027F802BD10B57A
:100D8000B024A4000059FFF786FE00F01EF810BD45
:100D900010B5B024A4000059FFF75CFE00F015F870
:100DA00010BD80B5B02292008058FFF76BFE02BDE7
:100DB00004487047005C00401C10024010ED00E049
:100DC00050090020080F0020704701000020002972
:100DD00004D0022901D10120704702207047F1B4EC
:100DE0000168421841684808131800988068C907CC
:100DF0001ED5494640181BE01778521C0770401C4E
:100E0000761EF9D1002C13D01678521C89080D409B
:100E1000032D01D11578521C290271184D42411938
:100E2000A41C05D00D78491C0570401C641EF9D126
:100E30009A420FD01178521C032503260E4002D18E
:100E40001678F61C521C0C090F2CD9D114780F34CB
:100E5000521CD5E700980C30F2BC7047403000219E
:100E60008180A6490180002070474021415AA44A50
:100E70000A4040214252002070470EB44030012108
:100E800001800021018081800182002003B0704731
:100E9000FCB500226B465A700A78920083181A88B3
:100EA000984C1440CA78002A05D0022A12D009D3DF
:100EB000032A04D00BE022008024A40005E02200D5
:100EC000C02401E022008024E400144302E0012257
:100ED0006D466A708C4A14431C800B789C00041980
:100EE00025888A4E2E401E43164326800B786C467A
:100EF0002370C0239B012024854D0E7B002E6E465F
:100F0000367866D1F6000196CF88824E3E404F7803
:100F1000002F1FD05023C35AC318019FDB1967014C
:100F2000DB191E800B789B00C3181E88760605D53A
:100F30001F88764E3E40C34F37431F800B789B007F
:100F4000C018C9780129018800D19EE00D406C408D
:100F50002243CEE05024045B0419019D6419550915
:100F6000641926805024045B04190D78ED0064197F
:100F7000B54D64190D6980263602002D05D12588EE
:100F8000B24F2F40278025880DE03F2D06D26E08F6
:100F9000ED0700D5761CB502258006E06F09ED0649
:100FA00000D17F1EBD022E4326800C78A4000419B8
:100FB00025886D0405D52588544E2E40A44D354313
:100FC00025800978890040180188A24C0C406340B4
:100FD0008EE0B6008619019636886F467E806E4692
:100FE00077884A4E3E409C4F3743019E37805026BB
:100FF000865B6F467E806E46768887190E78F6008F
:10100000BF196601BF19BC460F89424E3E40674674
:101010003E805026865B86190F78FF00F619570927
:10102000F719BC464F893B4E3E4067463E800E78DE
:10103000B600861901964E78002E29D1019C26888B
:10104000324C760406D5019E37882740804E3E43B9
:10105000019F3E800E78B600861901963688760686
:1010600006D5019E36883440764E2643019C268064
:101070000C78A40004192688764F37407B40134330
:10108000238009788900401801880D402A4330E008
:10109000019B1E881D4B760406D5019E37881F4094
:1010A0006B4E3E43019F3E800E78B6008619019636
:1010B0003688760606D5019E36883340614E1E433B
:1010C000019B1E800B789B00C318CE78012E05D0A3
:1010D0001E8835406C4014431C8003E01C8825406A
:1010E00015431D800978890040180188594B0B4031
:1010F0001A43028068464078F6BD000080BF0000B9
:101100007F4000008F890000808000008F8F0000EA
:10111000BF8F0000FEFF0000F2B582B009788900A1
:1011200041180091029949786A461171494D4B491D
:101130004B4A444B4B4C029E367B002E6E46367912
:1011400017D1002E0AD0009D2D886D063CD5009D3C
:101150002D882C402343009C238035E0009A128880
:10116000520465D5009A12881440394A2243009BE4
:101170005DE0002E009E36882ED1760406D5009EB6
:1011800037882740324E3E43009F3E80029E36788D
:10119000B600861900963688760605D5009E3688F4
:1011A00026401E43009F3E80029E3678B600861978
:1011B00037883C4023433380029B1B789B00C31835
:1011C0001C8825400D431D80029B1B789B00C01886
:1011D00003881A40114332E06F46BE806E46B688DF
:1011E000760406D5009E37882740194E3E43009F5F
:1011F0003E80029E3678B6008619009636887606BE
:1012000005D5009E368826403343009E3380029BDE
:101210001B789B00C3181E8834400D4E26431E8049
:10122000029B1B789B00C3181C8822400A431A802B
:10123000029A127892008018028815402943018092
:101240000020FEBDC080000006040000FF830000F7
:1012500080C000008FBF00008081000080800000FF
:10126000BF8F00008F8F0000FEB507000D002B7BA5
:10127000687880242402012800D064E12869009065
:101280002E69A869864200D90600002B0FD1B3B29F
:10129000EA886969380000F0EFFA5020385A3818A7
:1012A0002978C9004018BD494018068043E12978D3
:1012B00088003818EA78022A00D00CE12B6A0099DD
:1012C000994200D3F1E00288B5491140B54A0A437A
:1012D0000280981B28626878F107C90F009129786D
:1012E0008A00BA5A52066FD5AF4A00281ED1502044
:1012F000385A3818C90040188018002E05D10188C6
:10130000AA4A0A40028001880DE03F2E06D27108E9
:10131000009A002A00D0491C890205E07109F206F2
:1013200000D1491E89022143018008E0012806D12D
:101330005020385A3818C900401880180680B3B2B7
:101340006A896969380000F097FA68698019009025
:10135000286A2969814201D2801B01E00600002031
:10136000286269788D4800291FD15021795A79184F
:101370002A78D20089180818002E05D101888B4AD6
:101380000A40028001880DE03F2E06D27108F20764
:1013900000D5491C8902018011E07109F20600D1D3
:1013A000491E89020C43048009E0012907D150211C
:1013B000795A79182A78D200891808180680009876
:1013C0006861B3B22A896EE0744A00281ED15020A9
:1013D000385A3818C90040188018002E05D10188E5
:1013E000724A0A40028001880DE03F2E06D2710841
:1013F000009A002A00D0491C890205E07109F20612
:1014000000D1491E89022143018008E0012806D14C
:101410005020385A3818C900401880180680B3B2D6
:101420002A896969380000F027FA686980190090F4
:10143000286A2969814201D2801B01E00600002050
:1014400028626A785849002A1FD15022BA5AB8181F
:101450002A78D20080184018002E05D10188534AFE
:101460000A40028001880DE03F2E06D27108F20783
:1014700000D5491C8902018011E07109F20600D1F2
:10148000491E89020C43048009E0012A07D1502239
:10149000BA5AB8182A78D2008018401806800098E6
:1014A0006861B3B26A89009911E00188B34A0A40C1
:1014B000B349114301805020385A38182978C9009F
:1014C00040183649401803809BB22A896969380060
:1014D00000F0D2F92FE0C9000088400608D550205E
:1014E000385A381840183049401806806A8907E091
:1014F0005020385A381840182849401806802A8940
:10150000B3B26969380000F0B7F96878002807D1EC
:101510002878800038180188214A0A40A44908E048
:10152000012808D128788000381801881C4A0A4010
:10153000A0491143018028788000381801889E4A0C
:101540000A40302124E000210122002B3FD1AB6969
:101550002869984201D2191A00E01800A9615021A7
:10156000795A79182B78DB00C9180F4BC918002855
:101570001ED108880D4A02400A80088804430C8066
:101580002878800038180188A64A0A40C0218901BD
:1015900051407B4A0A4302800020FEBD0204000045
:1015A0008F8F00008081000006040000FF83000090
:1015B0003F2806D24308024000D05B1C98020880F6
:1015C000DEE74209C00600D1521E9002D6E7EB7852
:1015D000022B66D100281FD15020385A381829789C
:1015E000C90040189B4940182969002905D1018884
:1015F000994B0B40038001880CE03F2905D24B0832
:10160000114000D05B1C990205E04B09C90600D1CE
:101610005B1E9902214301806978002920D1502165
:10162000795A78182978C90040188C4940182969D6
:10163000002905D10188884A0A40028001880CE00F
:101640003F2905D24B080A4000D05B1C990212E0EA
:101650004A09C90600D1521E91020C4304800BE0D6
:10166000012909D15021795A78182978C9004018E0
:101670007A49401829690180E869002810D0287843
:10168000800038180188764A13000B40934201D03D
:101690000A4005D10188734A0A4045491143018037
:1016A0006EE7012B67D1AB692E699E4201D2991B6F
:1016B00000E01E00A961324001921F21664A002805
:1016C00022D15020385A38182B78DB00C018614BD3
:1016D000C0180090002E06D100881040009B188092
:1016E000009800880DE03F2E06D27008019B002B69
:1016F00000D0401C800205E070090E4200D1401E5F
:1017000080022043009B1880029768786B4618700F
:101710006846007800281FD15020385A38182B7896
:10172000DB00C0184D4BC018002E06D101880A40BE
:10173000028001880C43048022E73F2E06D2710804
:10174000019A002A00D0491C8902A8E77209314099
:1017500000D1521E9102EDE768460078012809D1B8
:101760005020385A029908182978C90040183B4976
:101770004018068004E70120FEBD00008F8E0000A7
:10178000808000000A7892008018374A4978002942
:10179000018803D0084B0B40102103E0214B0B4084
:1017A0008021490159400A4302800020704700000F
:1017B000C080000080C00000BF8F000030B50A7BF1
:1017C000002A2CD10A7892008318274A254C4D789C
:1017D000002D1D8811D06D0604D51D882C40234D89
:1017E00025431D80CB78012B19D00978890040183A
:1017F00001881F4B0B4020210EE06D0404D51D888D
:101800002C401C4D25431D80097889004018018813
:10181000044B0B40C021890159400A43028000203B
:1018200030BD00008FBF0000002902D180214C2272
:101830008152002070475821415A802212020A43E7
:10184000582103E04421405A704740214252002071
:101850007047000002040000FF830000060400003F
:10186000404000008F8F000080800000C08000009A
:10187000BF8F000080C0000010B580188022D20009
:1018800080185B1C5A0807E00B784C7824021C4334
:101890000480801C891C521EF6D110BD10B5801822
:1018A0008022D20080185A0806E00488801C0C7040
:1018B000240A4C70891C521EF7D1DA0701D5008822
:1018C000087010BD70B4103A03D378C9103A78C0CC
:1018D000FBD2530701D318C918C001D508C908C0E5
:1018E000D20704D30B880380891C801C002A01D5F1
:1018F0000B78037070BC704710B50C0606D549070D
:10190000490F282461434018283005E028244C431F
:101910000019B42149004018002A03D100210173A5
:10192000C38004E0012101730381190C418100206F
:1019300010BD58200A52002070470168B82292005A
:10194000801801228260002303705420085A024349
:1019500054200A52085A022202435420EAE77047F0
:1019600010B5C20018231340FF249C40E2438907AE
:10197000090E9940030004D418489B089B00C01826
:1019800006E0174B0007000F083880088000181881
:1019900003681A401143016010BD80B5FFF7E0FFF6
:1019A00001BD010005D40121C006C00E81400D48D3
:1019B0000160704710B5401E80214904884201D360
:1019C000012010BD084C606003210020C043FFF7D8
:1019D000C7FF0020A0600721216010BD00E400E0E7
:1019E0001CED00E000E100E010E000E010B5002890
:1019F00001D1022010BDA7239B00C3189C69002CB5
:101A000001D000249C61002900D059610121197086
:101A10000270FFF72FF9002010BD020000200029FE
:101A200003D0AD239B00D15070470220704780B592
:101A3000FFF75CF9002002BD10B50224AD22920030
:101A40008258002A04D012689047002800D1002450
:101A5000200010BD80B5AD22920082581AE138B541
:101A60000400AA2080002518280000F075FBA5209E
:101A70008000201801210160418B4160017DC80672
:101A8000C00E03D002280BD005D30EE029002000A1
:101A900000F04EF90EE02900200000F08DFA09E078
:101AA0002900200000F0B2FA04E08020014020006C
:101AB000FFF73AF9002032BD38B504001000A52226
:101AC0009200A3180A002CD11968032920D1B02153
:101AD000490061184A680D68AA420BD2AB1A0B6024
:101AE000934200D21A0092B20100200000F097FB4E
:101AF000002032BD196A0869002805D0187A032829
:101B000002D1200009698847200000F08CFBEFE734
:101B10000529EDD10020186000212000FFF704F90D
:101B2000E6E71A6A9069002806D0187A032803D1DC
:101B3000200092699047DBE7022032BDF8B504002F
:101B40001000A5229200A5180A0049D12968002694
:101B5000022937D1216A626A00928A4207D28A1A20
:101B6000226292B20100200000F044FB11E0E7691C
:101B70003800114600F070FB002911D1009887420F
:101B80000ED3686887420BD20022200000F032FB9F
:101B90006E600023002200212000FFF7F9F819E011
:101BA000296AC868002805D0287A032802D12000B5
:101BB000C968884780212000FFF7B6F8200000F0B0
:101BC0003EFB07E0042901D0002903D18021200039
:101BD000FFF7AAF8287B012800D12E730020F2BD60
:101BE0002A6A5069002806D0287A032803D12000E9
:101BF00052699047F2E70220F2BD70B5040040231D
:101C000000220021FFF77BF8AC20400020180125BE
:101C100005604026C6604023002280212000FFF797
:101C20006EF8A5616662A52080002218157200205A
:101C3000106060601061506A002805D06168C9B208
:101C40002000126A52689047002070BD0174002085
:101C50007047A72189004018017841700421017064
:101C600000207047A721890040180178042901D17C
:101C7000417801700020704780B5A7218900411884
:101C80000A78032A04D18969C969002900D08847E4
:101C9000002002BD52689047002002BD80B500F0D0
:101CA000F7FA00F009F800F003FB00F019FB00F070
:101CB0002DFB00F057FBFEE710B598B034210BA8C0
:101CC00000F0E0FB684600210022002300241EC033
:101CD0001C2100F0D7FB30200B90012013901090B6
:101CE0001020119014940BA800F0D4FB002801D010
:101CF00000F01BF807200090032001900294039449
:101D00000121684600F0DCFD002801D072B6FEE734
:101D10008020800204900A9404A800F0A3FE00280A
:101D200001D072B6FEE718B010BD72B6FEE7FEE74E
:101D3000F8B504000E00A720800025183078602137
:101D4000014009D0202901D0402926D131002000AE
:101D5000AA6992689047BBE00020022771780929A0
:101D60001BD802A24900525A974400BF0C02380205
:101D70001A012E021A01240114001A01E4016C0157
:101D8000694608807088010A012976D0022968D046
:101D900003292DD0062923D0072974D1207C0028BF
:101DA00071D16846A969096B884707214170694666
:101DB0000988002910D0F188002910D069460988C7
:101DC000F288914200D911006A46118069460A885A
:101DD0000100200000F000FAF088002878D1A9E086
:101DE000207C00284FD16846A969496B8847DEE707
:101DF000C0B2052847D801A1095C8F44544434245B
:101E0000140468698269002A3DD06946207C9047A5
:101E1000CDE768694269002A35D06946207C904741
:101E2000C5E768690269002A2DD06946207C904781
:101E3000BDE76869C268002A25D06946207C9047C2
:101E4000B5E768698268002A1DD06946207C904702
:101E5000ADE768694268002A15D06946207C904742
:101E6000A5E7A969207C0028684603D1896A8847CC
:101E700047709CE7C96A8847FAE76946207C6A6927
:101E80001268904793E73100200000F079F91FE0D5
:101E9000B0880028F7D1F0880028F4D17088802815
:101EA000F1D24006400E6946087028780328EAD02F
:101EB00068460078A870684601782000FEF756FF53
:101EC000200000F0B0F968460078002802D02F709A
:101ED0000020F2BD0127FAE77188364A11701178A7
:101EE0000A00022ACFDA2B78022B19D0032B25D136
:101EF000002905D12F7060602000FFF7ABFD19E0CD
:101F000061688A4216D0C9B22000FFF7A3FD2948B4
:101F1000017861602000FFF78FFD02280AD1B2E747
:101F2000002907D06260032028702000FFF784FD9D
:101F30000228A8D0200000F076F9C9E7310020007F
:101F400000F01EF91B4801782000FFF783FDBFE772
:101F5000F188012997D12978491E012907D9891EBD
:101F600091D10122211D200000F036F9B0E7A060D8
:101F7000012221000831F6E72878401E022882D885
:101F8000F0880228ECD10120A968002900D00320A4
:101F9000E060022221000C31E5E77088012897D12A
:101FA000A860C7E72978491E0229E8D87188012965
:101FB000F5E70000AC13002038B505000C002078D0
:101FC0006021014003D0202901D0402918D1A72049
:101FD00080002A181078401E022811D8A088C0B2AC
:101FE00002280DDA21002800926992689047E18862
:101FF000002909D1002807D1280000F014F903E0D6
:102000002100280000F0BCF8002032BDF8B5040023
:102010008B88DBB20878A7229200A2186025602680
:10202000064008D0202E01D0402E78D120009269A1
:102030009268904776E00540202D04D120009269F7
:1020400092689047F2BD7F204D78002D37D0012D4A
:1020500015D0032D63D11078022816D003285ED145
:102060004888002827D1002B25D0802B23D0C88872
:10207000002820D119002000FEF756FE1BE0127840
:10208000022A02D0032A0DD049E0002B47D0802B32
:1020900045D019002000FEF747FE80212000FEF702
:1020A00043FE3FE0498800293CD11900014202D09B
:1020B0002000FEF742FE200000F0B5F832E01840A4
:1020C000142568432618AA204000351818008027D8
:1020D00038406F46387000201278022A02D0032A56
:1020E00011D01CE0002B01D0802B18D16946097853
:1020F000002902D03100143100E0290008602000DE
:1021000000F06AF80EE01A07120F14277A43A2189B
:102110006F463F78002F07D09269002A0ED1200029
:1021200000F02EF80020F2BDAC2676009259002A6D
:10213000F5D0002B0CD0802B03D109E035001435ED
:10214000F7E719002000FEF701FE002800D001206B
:10215000286002222900D2E70A7802704A78427089
:102160008A78CB781B02D21842800A794B791B02FD
:10217000D21882808A79C97909025118C1807047C2
:1021800010B504008021FEF7CFFD00212000FEF7EE
:10219000CBFD10BD002800D1704770B504000023AE
:1021A000002501E06D1C641C2678002EFAD12D0656
:1021B000EC0DA41C148012780A7003224A700222CB
:1021C00006E0D5B24C55401C521CD5B24B55521CA2
:1021D0000478002CF5D170BD10B513000222A5249F
:1021E000A4000251C36103620A000021FEF7C7FD8B
:1021F000002010BD80B513000A001BE010B51300CD
:102200000322A524A4000251AE22520082181360BA
:1022100053600A000021FEF7BBFD002010BD80B511
:1022200013000A0012E080B50421A522920081501B
:10223000002300220021FEF7A2FD002002BD80B590
:102240000521A52292008150002300220021FEF7E3
:102250009FFD002002BDFEE7094214D088420FD343
:102260000122030C01D100041204002300185B4179
:102270008B4200D35B1A5241F8D31900100070470B
:1022800001000020704708B500F086FC08BDFEE79D
:1022900080B50648016810220A430260002000F061
:1022A0007DFC00F09DFC002002BD000000200240EB
:1022B00081B08020C00309490A6802430A600A68A5
:1022C000104000900098802080020A6802430A6053
:1022D000096808400090009801B07047141002404F
:1022E00080B5012008490A6802430A60096808406D
:1022F00000900098002200210920FFF74EFB0920E2
:10230000FFF74FFB01BD00BF1410024010B5114C88
:10231000002211492000FFF769FB002801D0FFF7D8
:1023200004FD0E492000FFF778FB002801D0FFF7DD
:10233000FCFC0B49200000F09DFD002801D0FFF7B8
:10234000F4FC2000FFF773FB002801D0FFF7EDFC41
:1023500010BD00BF440C0020300100201C000020F4
:10236000200100207FB50C220021684600F0B2FD5C
:102370003F4C4048206000206060A060E060012683
:102380002661042565612083A676E076FF21C231AF
:10239000E161206224216054A662200000F0A4FDC7
:1023A000002801D0FFF7C1FC0096A80201900004AC
:1023B00002906946200000F051FE002801D0FFF78E
:1023C000B4FC00956946200000F048FE002801D0CA
:1023D000FFF7ABFC052000906946200000F03EFEB0
:1023E000002801D0FFF7A1FC7FBD70B586B00400C6
:1023F0001422002101A800F06DFD20681D498842CB
:1024000034D11D48410D42680A4342604268114080
:10241000009100998021890202680A4302600068E5
:102420000140009100983220019003200290002585
:10243000039501A99020C00500F0A0FE0F4E1048A2
:1024400030607560B5608020F06080303061800061
:1024500070612020B0610002F061300000F05CFF8C
:10246000002801D0FFF761FC2663746206B070BDDE
:102470006C13002000240140141002402813002097
:1024800008000240002200BF094202D0491E425407
:10249000FCD17047F8B506001BD09F4C3078C007C0
:1024A00019D58027BF0260680C21014004290BD098
:1024B00060680C210140082948D16068C0214902A8
:1024C00001407808814241D12068074003D07068FC
:1024D000002800D1E9E1307880071FD5F827FF43B5
:1024E00060680C2101400CD060680C210140082973
:1024F0005FD16068C0214902014080200002814212
:1025000057D12068800703D5F068012800D0CCE1BE
:10251000206807403069C0003843206030780007E9
:1025200078D50227F0690028606A64D00121014350
:10253000616200F08BFF0500606A38406AD100F0EC
:1025400085FF401B0228F7D90320F2BD7268790885
:10255000012A08D0B248002A09D0052A07D12068EC
:102560008A000243226020680143216006E021685E
:10257000AC4A0A4022602168084020607068002848
:102580000BD000F063FF050020683840A3D100F0B5
:102590005DFF401B6528F7D3D6E700F057FF050025
:1025A0002068384097D000F051FF401B6528F7D3D2
:1025B000CAE7F068002820680ED00121014321609D
:1025C00000F044FF050020688007A1D400F03EFF22
:1025D000401B0228F7D9B7E701218843206000F0AB
:1025E00035FF05002068800798D500F02FFF401BBD
:1025F0000228F7D9A8E701218843606200F026FF8E
:102600000500606A384005D000F020FF401B02281A
:10261000F7D999E73078400761D5002000908020F5
:102620004005E169014008D1E1690143E161E169E7
:10263000084000900098012000909E4F3868C00527
:102640000FD43868A10D0143396000F0FFFE05008A
:102650003868C00505D400F0F9FE401B6528F7D3A3
:1026600072E7B068012809D0002801D1206A0AE089
:102670000528206A07D1042101432162206A012133
:102680000143216206E0012188432062206A04217F
:10269000884320620227B06800280CD000F0D6FEE4
:1026A0000500206A384013D100F0D0FE401B82495B
:1026B0008842F6D348E700F0C9FE0500206A38409A
:1026C00006D000F0C3FE401B7B498842F6D33BE7AF
:1026D0000098002803D0E06978490140E161307832
:1026E000C00621D57069F825ED430422012851D197
:1026F000606B02436263606B01210143616300F020
:10270000A5FE0700606B800708D400F09FFEC01B89
:102710000228F7D918E700BF00100240606B05409F
:10272000B069C000284360630C273078800614D558
:10273000606838400C2809D060683840082843D1C8
:10274000606879030140780381423DD1606BC0032A
:1027500003D5306A012800D0A7E0706A002800D1B4
:10276000A5E061680F40082F00D189E08027BF04F1
:1027700095490228206875D10140216000F066FE6D
:102780000500206838404FD000F060FE401B022852
:10279000F7D9D9E60421C9438842606B02D10140D0
:1027A0006163BBE702436263606B0121884360633E
:1027B00000F04CFE0500606B8007B5D500F046FECA
:1027C000401B0228F7D9BFE6802040020090306A03
:1027D000002813D0802040020090606B00990143D4
:1027E000616300F033FE0500606B00990140B4D1D5
:1027F00000F02CFE401B0228F6D9A5E6606B0949C3
:102800000140616300F022FE0500606B0099014009
:10281000A3D000F01BFE401B0228F6D994E600BFAF
:10282000FFFFFBFFFFFFFEFFE06A0F218843316BD4
:102830000143E162606879490140F06A0843B16A86
:1028400001436160206879080143216000F0FEFDCA
:102850000500206838402AD100F0F8FD401B02280E
:10286000F7D971E60140216000F0F0FD0500206815
:1028700038401CD000F0EAFD401B0228F7D963E67F
:10288000012812D06068E16AC02252020240B36A95
:102890009A420AD10907090F326B914205D1F02102
:1028A00089030140F06A814201D00120F2BD00207D
:1028B000F2BD00000070004089130000FFFFFFEF31
:1028C000F8B5040065D0009155480068C107C90FEC
:1028D000009881420CD25248016801229143009A2B
:1028E0000A4302600068C107C90F0098814250D1B5
:1028F00021684C4D022001420CD0490704D569687B
:10290000E022D2000A436A606968F0229143A2681B
:102910000A436A600127216839402AD06168012989
:1029200002D12868800308E0022902D128688001CA
:1029300003E0032903D1686BC00303D429E02A68AC
:10294000104026D06868032290430143696000F07C
:102950007DFD060068680C210140606880008142AE
:1029600007D000F073FD801B2F498842F2D303206B
:10297000F2BD2B48009902683A4091420BD201689F
:10298000B943009A0A4302600068074000988742F2
:1029900001D00120F2BD2078400705D568682349A1
:1029A0000140E0680843686000F010F820496A6858
:1029B0001206120F895CC8401E490860002000F012
:1029C000EDF80020F2BD0000FFFFFFFEF0B51A4950
:1029D0000B681A481A4A0C241C40082C02D00C2CF4
:1029E0001AD0F0BD0F2500BF16A49E0C2E40A45D8A
:1029F00018A6896A0D40715DC0256D022E001E402B
:102A000080277F02BE4203D02B40AB4200D1100092
:102A1000FFF722FC6043F0BD1000F0BDFF7FC2FF56
:102A2000002002400010024089130000FFF8FFFF61
:102A3000BC3600080C0000200410024000127A008E
:102A4000006CDC0202030405060708090A0B0C0DE2
:102A50000E0F10100102030405060708090A0B0CEB
:102A60000D0E0F10F8B50400444D2068C00356D574
:102A700000200090802040052968014008D1296885
:102A800001432960296808400090009801200090C7
:102A90003B4F3868C00510D43868A90D0143396030
:102AA00000F0D4FC06003868C00506D400F0CEFC67
:102AB000801B6528F7D30320F2BDC0208000696821
:102AC0000140304F00291ED06268104081421AD068
:102AD000686838406968802252020A436A606968FF
:102AE000294A0A406A606860C0070CD500F0AEFC55
:102AF00006006868800706D400F0A8FC801B234904
:102B00008842F6D3D7E76868074060683843686052
:102B10000098002803D028681D49014029602078CA
:102B2000C00705D5686903218843A168014369612D
:102B30002078800705D5686916490140E068084398
:102B400068612078800605D568691021884321696D
:102B5000014369612068800305D568698021884345
:102B6000A169014369612068400505D56869402174
:102B700088436169014369610020F2BD1C10024075
:102B800000700040FFFCFFFFFFFFFEFF8913000005
:102B9000FFFFFFEFFFFFFCFF7047FEE738B50500C2
:102BA0000D4CFA2080002178FFF756FB01000B48FE
:102BB0000068FFF751FBFEF7FDFE00280AD1042D47
:102BC00008D2002229000020C043FEF7E6FEA560DF
:102BD000002032BD012032BD000000200C0000208A
:102BE00081B0012009490A6802430A600A6810405E
:102BF00000900098802040054A6802434A60496876
:102C000008400090009801B0704700BF18100240C3
:102C1000F8B50400002500270126207C002808D1F3
:102C20007302022281212000FEF769F8E662730236
:102C300007E04023022281212000FEF760F8E662CF
:102C40004023022201212000FEF759F8B62040005F
:102C500026500823032282212000FEF750F8266424
:102C600087208000FEF7A4F8AE2189006118086073
:102C7000002801D1012714E0060048680068804759
:102C8000812080003018056145610268207C0028A1
:102C900002D180239B0000E0402301212000FEF7A9
:102CA00077F83800F2BD38B505008121FEF733F81A
:102CB0000024EC6201212800FEF72DF8B620400028
:102CC0002C5082212800FEF726F82C64AE208000CC
:102CD0002D182868002806D0686840688047286852
:102CE000FEF772F82C60002032BDF8B505000C002C
:102CF000A72080002B18DF69002669460E70684601
:102D00004680217860220A4023D0202A3CD1E288E4
:102D1000002A18D06078090609D539001B6A9B681B
:102D20009847E28839002800FFF756FA31E0802101
:102D3000890079180870E0884870E2883900280016
:102D4000FFF75CFA25E0210060781B6A9B689847D2
:102D50001FE06078002804D00A2809D00B2810D082
:102D600012E0187803280FD1022200A9891C04E080
:102D70001878032808D1012269462800FFF72CFAA9
:102D800007E01878032804D021002800FFF7F8F99D
:102D900002263000F2BDF8B50400AE2080002018F5
:102DA00005688268002D1ED06846017014204843D3
:102DB0002618F0690027002810D0282359435118FD
:102DC000896BFFF749FA002908D1F7610023002237
:102DD000684601782000FDF7D2FF02E085208000E0
:102DE0002F500020F2BD0220F2BD70B5AE2292003D
:102DF00084182568B43AAE18FDF7D3FFB060206898
:102E0000002808D083208000291830686268D268C2
:102E10009047002070BD022070BD10B5AE21890022
:102E2000401801684368002B0AD0802080000C18ED
:102E30002078FF2804D062789B689847FF20207094
:102E4000002010BD432101800648704743210180C6
:102E50000548704743210180044870470A210180DA
:102E6000034870479800002054000020DC00002038
:102E70001000002002000220002903D0AF208000B3
:102E8000115000207047AE239B00C058B03BC018C3
:102E90000160826000207047AE2292008058B43AF0
:102EA00081500020704780B5AE218900415800292B
:102EB0000ED0812292008A58017C002902D1802301
:102EC0009B0000E040230121FDF762FF002002BDCE
:102ED000022002BD10B5040008001100020020000D
:102EE000FFF7D2FA200010BDF8B504000025002C31
:102EF00001D10120F2BDA06B002805D1E06334218F
:102F000060542000FFF771FA10210122A06B0840E5
:102F100003D1236804209E68064000D091E0A76B8F
:102F20004B4E3E4002273743A7639E68B607B60F55
:102F3000012E05D11E6816400FD1DE6836040CD470
:102F4000DE681827BE43A7683743DF6023681E6921
:102F5000B600B608676837431F612368DE683D4FD7
:102F60003740DF60A36A012B01D0860200E0002613
:102F70002369022B01D1009000E00095A37E207E02
:102F80008003677EFF030743580338430643E06826
:102F90003043009E06432420205C40003043E67E00
:102FA000012E0CD1002B03D103000803184306E0C7
:102FB000A36B20261E43A663E36B1343E363E3691D
:102FC000FF26C236B34203D00600206A18433043BE
:102FD0002368DE680643DE60E36A0E06B3420DD066
:102FE000012B0BD0022B09D0032B07D0042B05D0CB
:102FF000052B03D0062B01D0072B0CD123685E696B
:103000000727BE435E6123685E692C27E75D7F0763
:103010007F0F37435F610223DB432668F6680E4F5C
:103020003740874205D1E563A06B03401A43A26392
:103030000BE0A06B03401943A163E06B1043E06316
:1030400002E0A06B0143A16301252800F2BD00004E
:10305000FFFEFFFF1902FEFFE7FF3F83F8B5040004
:103060000025002600953420205C012801D1022093
:10307000F2BD01203423E054226893685B0765D4D5
:103080000B689840009036484B68364FBB42936AB5
:10309000009F49D01F439762E26A80235B059A42F2
:1030A0001FD0012A1DD0022A1BD0032A19D0042ABE
:1030B00017D0052A15D0062A13D0072A11D0226866
:1030C0008B6857697F077F0FBB420AD05369072778
:1030D000BB435361226853690F7A7F077F0F1F43F9
:1030E00057610A68102A19D0112A1AD0122A32D12F
:1030F0008022520403681A430260086810282AD10B
:10310000194800681949FFF7A7F80A2148430090B9
:10311000009800281FD00098401EF8E78022120473
:10312000E8E78022D203E5E7BB43936209681029F0
:1031300008D0112908D012290DD10D49026811407B
:10314000016008E00B49F9E70B49F7E7A16B202282
:103150000A43A2630126342025543000F2BD00004A
:1031600008270140011000000C00002040420F0021
:10317000FFFFFFFEFFFF7FFFFFFFBFFFFFB5002246
:10318000012301932BE0052603E05C4EB042FAD107
:103190000426AE402643029C2660594C2668DC4338
:1031A00026404D68ED0300D51E43554D2E606E68D8
:1031B00026404F68BF0300D51E436E60AE682640B0
:1031C0004F68FF0200D51E43AE60EE6834404E6883
:1031D000B60202D526001C003443EC60521C0B687A
:1031E0001C00D44000D187E0019D95402B40F5D0D4
:1031F00054000327A740FE4302964E68012E05D0D7
:10320000022E03D0112E01D0122E0FD18768029EFC
:103210003E40CF68A740374387604668AE434D685D
:103220002D09019F2F40974037434760C568029E94
:103230002E408D68A5403543C56095006E4675707B
:103240004D68022D01D0122D1AD1D508AD004519B7
:103250002E6A03966E4677781C263E406F463E7077
:10326000039EB4460F276E463678B7406646BE4387
:10327000B4460F696E463678B740664637432F62CC
:1032800007680326029D3D404F683740BC46270033
:103290006446BC402C4304604C68E4009ED5194C45
:1032A0002468019D2543174C25602468019D254015
:1032B0000295029C144C9508AD0064190294246890
:1032C0006D466F780C253D400F27AF40BC439027DB
:1032D000FF05B84201D100265BE70C4FB84201D18F
:1032E000019E56E70A4FB84201D1022651E7094F25
:1032F000B84200D049E74CE7FFBD0000001000488D
:103300000004014018100240080001400004004879
:1033100000080048000C004810B5040001D101204D
:1033200010BD022021216054206801680D4A0A4026
:1033300061681143A2680A43E168114322690A43A4
:1033400061691143A2690A43E169114301602000E8
:1033500000F06AF80020A06301212122A15420215D
:10336000605410BD0FC0FFFFFEB5C16B096801912D
:1033700001680A68009220220423019C056C04263F
:10338000AE40264011D0009C1C400ED00C6822405C
:1033900002D10A689A430A60016C8B40C16B4B6092
:1033A000C16A00293FD08847F7BD012302240025C8
:1033B000019EB446066C0227B7406646374016D0D9
:1033C000009E264013D00E68324005D10A680A26B6
:1033D000B2430A6021214354016C8C40C16B4C60A4
:1033E00020214554816A00291DD08847F7BD082255
:1033F0006446066C0827B740274014D0009C224042
:1034000011D00A680E24A2430A60016C01228A408E
:10341000C16B4A6083632121435420214554016BD1
:10342000002900D08847F7BD10B504002068054981
:1034300040181421FEF710FF800020640248E0636A
:1034400010BD0000F8FFFDBF0000024001484068C9
:10345000704700BF00000020122008801748704706
:10346000042008801648704710B50A0024A01EE00A
:1034700010B50A00134C210027A01AE038B51A2015
:103480000880114845680168806808180F4C09D009
:103490000822A11C00F020F804222100123128008B
:1034A00000F01AF8200032BD10B50A001FA0054C2C
:1034B0002100FEF76FFE200010BD00004C0100202F
:1034C0006001002028110020ACF7FF1F64010020DC
:1034D00010B50A0018A0EAE770B5002300240BE03D
:1034E000373605E065004D19060F0A2EF8D2303642
:1034F0002E7000016B70641C9442F3DB70BD000001
:1035000053544D3332205669727475616C20436F89
:103510006D506F727400000053544D6963726F6593
:103520006C656374726F6E6963730000434443207B
:10353000436F6E666967000043444320496E7465BB
:10354000726661636500000038B50F4D0F4C0022B4
:10355000FA20800021182800FFF795FC21002800A0
:10356000FFF79AFC002032BD002070470020704712
:1035700010B50100044C2000FFF78EFC2000FFF77F
:1035800092FC002010BD0000440C002080010020AF
:1035900070B40123002413E00168001D194202D019
:1035A0004D466D1E49190C60091D121F042AFAD2DE
:1035B0000D00960701D50C80AD1C1A4000D02C7070
:1035C0000268001D002AE7D170BC7047FEE7FEE7E5
:1035D0007047704780B500F00FF801BD80B5044812
:1035E000FFF7C2FE01BD80B50248FCF7D3FD01BD67
:1035F00028130020500900200248416802788918E9
:10360000416070470000002010B507497944183127
:10361000064C7C44163404E0081D0A688918884763
:103620000100A142F8D110BD0800000024000000F4
:1036300061FFFFFF30120000800100200000000049
:103640009FD7FFFFC8000000A40100000000002079
:1036500000F00DF8002801D0FFF7D6FF00BF00BF33
:10366000002000BF00BFFEF719FB00F002F80120A8
:10367000704780B500F002F801BDFEE70746384606
:1036800000F002F8FBE7FEE780B500BF00BF024A8A
:1036900011001820ABBEFBE72600020005480146DA
:1036A00003B4684680F3098800BF00BF00BF00BFB5
:1036B000FFF7CEFFA5EDF5FE70470000000000000B
:1036C00000000000010203040607080901488047C2
:1036D00001480047B93600089D360008FEE7FEE7BE
:1036E000FEE7FEE7FEE7FEE7FEE7FEE7FEE7FEE7B2
:1036F000FEE7FEE7FEE7FEE7FEE7FEE7FEE7FEE7A2
:10370000FEE7FEE7FEE7FEE7FEE7FEE74301000116
:103710002204081005127A000A0600020B22401843
:103720001003112C0008A70412EB04211F10041B26
:103730002E0008972D10422D106101124D181245D0
:1037400004125504125D041008090243000201002E
:10375000C03209561301020B101E0524001001058A
:103760002401000104240202052406000107058249
:103770000308001009040100020A4E1002070501A7
:10378000027B200107058107F2280044224007221E
:103790008107200100090744F22C04441003493535
:1037A00000086904126D04127104100359340008F2
:1037B0006104127104126904127D0412A90412D169
:1037C0000412124310060202004083044057791786
:0E37D000020345F00508040309041A03000172
:040000050800369D1C
:00000001FF
