:020000040800F2
:1000000010040020A10B0008C10B0008C30B00085E
:1000100000000000000000000000000000000000E0
:10002000000000000000000000000000C50B0008F8
:100030000000000000000000C70B0008C90B00080A
:100040007306000800000000EF060008BF09000862
:100050003F0A00084F0B00085B0B0008E10B00088B
:1000600000000000E30B0008E50B0008E70B0008A8
:10007000E90B0008EB0B0008ED0B00080000000086
:10008000EF0B0008F10B0008F30B0008F50B00085C
:10009000F70B0008F90B0008FB0B0008FD0B00082C
:1000A000FF0B0008010C0008030C0008050C0008F9
:1000B000070C0008090C0008000000000B0C0008E9
:1000C000FEB506001BD0B04C3078C00719D580278C
:1000D000BF0260680C21014004290BD078086168D8
:1000E0000C220A40082A47D16168C02252020A4005
:1000F000824241D12068074003D07068002800D1B7
:100100009FE1307880071FD5F827FF4360680C21F6
:1001100001400CD060680C21014008295ED1606864
:10012000C0214902014080200002814256D120684E
:10013000800703D5F068012800D082E120680740DD
:100140003069C000384320603078000777D5022737
:10015000F0690028606A63D001210143616200F008
:1001600045FA0500606A384069D100F03FFA401B4B
:100170000228F7D90320FEBD7368012B09D0B349CB
:10018000B34A002B09D0052B07D1216882000A430E
:10019000226021680843206005E020680240226058
:1001A000206801402160706800280BD000F01EFA22
:1001B000050020683840A4D100F018FA401B6528DB
:1001C000F7D3D7E700F012FA05002068384098D03E
:1001D00000F00CFA401B6528F7D3CBE7F068002845
:1001E00020680ED001210143216000F0FFF90500D5
:1001F00020688007A2D400F0F9F9401B0228F7D943
:10020000B8E701218843206000F0F0F9050020687C
:10021000800799D500F0EAF9401B0228F7D9A9E731
:1002200001218843606200F0E1F90500606A38400E
:1002300005D000F0DBF9401B0228F7D99AE7042724
:100240003068384062D000200190B806E169014072
:1002500008D1E1690143E161E1690840009000983B
:10026000012001907B480068C00512D479480068DD
:10027000A10D01437748016000F0B8F90500754809
:100280000068C00505D400F0B1F9401B6528F6D31D
:1002900070E7B068012808D0002801D1206A09E081
:1002A0000528206A06D138432062206A01210143D3
:1002B000216205E0012188432062206AB843206260
:1002C000A4480090B06800280CD000F08FF9050019
:1002D000206A800713D400F089F9401B00998842F6
:1002E000F6D347E700F082F90500206A800706D5BB
:1002F00000F07CF9401B00998842F6D33AE7019858
:10030000002803D0E06994490140E1613078C006DB
:100310001DD57069F825ED43012837D1606B07437F
:100320006763606B01210143616300F05FF90700BF
:10033000606B800705D400F059F9C01B0228F7D97B
:1003400018E7606B0540B069C00028436063306AFD
:10035000002878D061680C220A40082A5CD08027E7
:10036000BF0490490228206848D10140216000F074
:100370003DF905002068384022D000F037F9401BD5
:100380000228F7D9F6E600BF001002400421C94355
:100390008842606B02D101406163D2E70743676323
:1003A000606B01218843606300F020F90500606BF9
:1003B0008007CCD500F01AF9401B0228F7D9D9E6FE
:1003C000E06A0F218843F16A0143E162606876497F
:1003D0000140B06A0843716A01436160206879088E
:1003E0000143216000F002F90500206838402AD15D
:1003F00000F0FCF8401B0228F7D9BBE60140216061
:1004000000F0F4F80500206838401CD000F0EEF849
:10041000401B0228F7D9ADE6012812D06068E16AD6
:10042000C02252020240736A9A420AD10907090F98
:10043000F26A914205D1F02189030140B06A8142FC
:1004400001D00120FEBD0020FEBD0000FFFFFBFF2C
:10045000FFFFFEFF00700040F8B5040060D000917F
:1004600052480068C107C90F009881420CD24F481A
:10047000016801229143009A0A4302600068C107A3
:10048000C90F009881424BD12168494D0220014299
:100490000CD0490704D56968E022D2000A436A609B
:1004A0006968F0229143A2680A436A6001272168C3
:1004B000394025D06168012902D12868800303E012
:1004C000022903D12868800103D429E02A6810405A
:1004D00026D06868032290430143696000F086F8E3
:1004E000060068680C21014060688000814207D0E6
:1004F00000F07CF8801B17498842F2D30320F2BD3C
:100500002A48009902683A4091420BD20168B943E7
:10051000009A0A430260006807400098874201D0B1
:100520000120F2BD2078400705D5686821490140C7
:10053000E0680843686000F011F81F496A68120615
:10054000120F895CC8401D490860002000F054F873
:100550000020F2BD89130000FFFFFFEF70B51849BE
:100560000B681848184A0C241C40042C02D0082C94
:1005700002D070BD100070BD0F2500BF13A49E0CEB
:100580002E40A45D15A6896A0D40715DC0256D02DF
:100590001D4080235B029D4200D1100000F04EF808
:1005A000604370BDFFFFFFFEFF7FC2FF00200240DF
:1005B00000100240FFF8FFFF900B00080C00002025
:1005C0000410024000127A00001BB7000203040569
:1005D000060708090A0B0C0D0E0F10100102030488
:1005E00005060708090A0B0C0D0E0F10014840689C
:1005F000704700BF0000002038B505000D4CFA2000
:100600008000217800F01AF801000B48006800F023
:1006100015F800F050F800280AD1042D08D2002265
:1006200029000020C04300F042F8A560002032BD40
:10063000012032BD000000200C000020094214D02F
:1006400088420FD30122030C01D1000412040023BD
:1006500000185B418B4200D35B1A5241F8D319005A
:100660001000704701000020704708B500F03EF808
:1006700008BDFEE710B5C20018231340FF249C40BC
:10068000E2438907090E9940030004D414489B08EB
:100690009B00C01806E0134B0007000F08388008C5
:1006A0008000181803681A401143016010BD80B51E
:1006B000FFF7E0FF01BD10B5401E802149048842CC
:1006C00001D3012010BD084C606003210020C0430D
:1006D000FFF7D0FF0020A0600721216010BD0000BF
:1006E00000E400E01CED00E010E000E07047FEE7F1
:1006F000FFB50022012301932AE0052602E05C4FAA
:10070000B842FAD1AE402643029C2660594C266876
:10071000DC4326404D68ED0300D51E43554D2E6049
:100720006E6826404F68BF0300D51E436E60AE68FA
:1007300026404F68FF0200D51E43AE60EE6834408D
:100740004E68B60202D526001C003443EC60521CF1
:100750000B681C00D44000D183E0019D95402B40E4
:10076000F5D054000327A740FE4302964E68012EA1
:1007700005D0022E03D0112E01D0122E0FD1876882
:10078000029E3E40CF68A740374387604668AE432D
:100790004D682D09019F2F40974037434760C5683A
:1007A000029E2E408D68A5403543C56095006E467B
:1007B00075704D68022D01D0122D1AD1D508AD00EB
:1007C00045192E6A03966E4677781C263E406F4682
:1007D0003E70039EB4460F276E463678B740664695
:1007E000BE43B4460F696E463678B7406646374317
:1007F0002F6207680326029D3D404F683740BC4684
:1008000027006446BC402C4304604C68E4009ED53D
:10081000194C2468019D2543174C25602468019DCF
:1008200025400295029C154C9508AD006419029470
:1008300024686D466F780C253D400F27AF40BC43C0
:100840009027FF05B84201D100265BE70C4FB84264
:1008500001D1019E56E70B4FB84200D04FE7022668
:1008600050E7FFBD002A01D0816170478162704767
:10087000000C00480004014018100240080001402C
:100880000004004800080048F8B586B01422002192
:10089000684600F063F8802109032E4802680A4385
:1008A000026002681140059105998021C903026820
:1008B0000A4302600268114005910599802189026E
:1008C00002680A4302600068014005910598224FC2
:1008D0000022802189013800FFF7C4FF0122C021D6
:1008E00009023800FFF7BEFF9026F6050122862197
:1008F0003000FFF7B7FF002220213000FFF7B2FFE2
:10090000E020000200901125019500240294039438
:1009100069463800FFF7ECFE8620009001950294AE
:100920000325039569463000FFF7E2FE2020009082
:10093000012001900294039569463000FFF7D8FE2C
:10094000402000900194029469463000FFF7D0FEE9
:1009500007B0F0BD141002400008004810B50400B4
:10096000080011000200200000F002F8200010BD75
:100970001206130A1A43130C1A4300BF094205D08A
:10098000830705D00270401C491EF9D17047000052
:100990001300103906D330B41400150010393CC0D0
:1009A000FCD230BC490700D30CC000D504C089007C
:1009B00002D30280801C002900D502707047FEE738
:1009C00080B500F03DF800F00DF8FFF75DFF142052
:1009D00000F046F8012251030148FFF743FFFEE70C
:1009E0000008004838B590B03022002104A8FFF775
:1009F000B5FF102200216846FFF7B0FF01200490E8
:100A0000059002240C9400040D90C0000E90002567
:100A10000F9504A8FFF754FB002801D072B6FEE73B
:100A20000720009001940295039501216846FFF785
:100A300013FD002801D072B6FEE711B030BDFEE70D
:100A400080B50648016810220A4302600020FFF7C3
:100A5000D3FD00F019F8002002BD00000020024084
:100A600038B50500FFF7C2FD04000020C0438542F1
:100A700002D0044800782D18FFF7B8FD001BA842EB
:100A8000FAD331BD0000002081B0012009490A6875
:100A900002430A600A6810400090009880204005D8
:100AA0004A6802434A60496808400090009801B0D3
:100AB000704700BF1810024030B401220EE00368F6
:100AC000C31844680830144202D04D466D1E6419A4
:100AD0001D6825601B1D241D091FF9D10168001D1B
:100AE0000029ECD130BC704710B507497944183162
:100AF000064C7C44163404E0081D0A6889188847AF
:100B00000100A142F8D110BD08000000180000004B
:100B1000A9FFFFFF10000000B80000000000002047
:100B20000000000000F00DF8002801D0FFF7DCFF06
:100B300000BF00BF002000BF00BFFFF741FF00F073
:100B400002F80120704780B500F002F801BDFEE711
:100B50000746384600F002F8FBE7FEE780B500BF25
:100B600000BF024A11001820ABBEFBE726000200BE
:100B70000548014603B4684680F3098800BF00BFFA
:100B800000BF00BFFFF7CEFFA5EDF5FE70470000E8
:100B9000000000000000000001020304060708092D
:100BA00001488047014800478D0B0008710B000881
:100BB00002484168027889184160704700000020AF
:100BC000FEE7FEE77047704780B5FFF7F1FF01BD14
:100BD00001000000000000000400000000127A0084
:100BE000FEE7FEE7FEE7FEE7FEE7FEE7FEE7FEE7DD
:100BF000FEE7FEE7FEE7FEE7FEE7FEE7FEE7FEE7CD
:0C0C0000FEE7FEE7FEE7FEE7FEE7FEE78A
:0400000508000B7173
:00000001FF
